:100000000C9423020C946A020C946A020C949003E0
:100010000C946A020C946A020C946A020C946A02B0
:100020000C946A020C946A020C94951A0C94671B47
:100030000C940A160C946A020C946A020C946A02DC
:100040000C946A020C946A020C946A020C946A0280
:100050000C946A020C9472160C946A020C946A0254
:100060000C946A020C946A020C946A020C946A0260
:100070000C946A020C946A020C946A020C946A0250
:100080000C946A020C946A020C946A020C946A0240
:100090000C946C020C946A020C946A020C946A022E
:1000A0000C946A020C946A020C946A02820C820C10
:1000B000B40CB40C1F0E1F0E1F0E1F0E010D9E0D53
:1000C000AF0DAF0D0F0E1F0E1F0E180E950E950ED5
:1000D000A70EA70E9E0EA70EA70EA70E950E950EA5
:1000E000A30EA70EA70EA30ED41BFB1BED1CFB1B20
:1000F000ED1C471C6A1CED1CC01CCF1C2900140001
:100100001A0008001500170000002B00040016005C
:10011000070009000A000000E1001D001B000600A6
:10012000190005000000E000E200E3008800015132
:100130002C006C000351130012000C0018001C006E
:1001400000002D0033000F000E000D000B0000001A
:1001500028003800370036001000110000004F0062
:1001600052005100500002512C006B0029001E006B
:100170001F0020002100220000002B002E0087001D
:100180003200890000000000E10000002D00340072
:10019000000000000000E000E200E3008800010031
:1001A0002C008B002A0027002600250024002300B5
:1001B00000004B00290028004D004A0035000000D7
:1001C0004E0052002B0049002A004C0000004F0056
:1001D000510051000000025128008A002B003A0013
:1001E0003B003C003D003E000000E00044004500B4
:1001F0002D00340038000000E10000000000300055
:100200002F0000000000E000E200E3008800015140
:100210002C008B002A0043004200410040003F00B8
:10022000000000004F00520051005000000000008C
:100230006B00390048004700460005000000E4005C
:10024000E700E6006500025128008A00290000004E
:10025000000000002102000000002B0033002D00F0
:1002600034002E0087000000E100300032008900D9
:100270002F0000000000E00001000100000000006D
:10028000010001000000270200000000240200001D
:10029000000000000000000000000000000000005E
:1002A000000000000000000000000000000000004E
:1002B00000000000000000000100010035001E00E9
:1002C0001F00200021002200000001003A003B0036
:1002D0003C003D003E0000000100400041004200A3
:1002E0004300440000000100010001000100010082
:1002F000010001004C0027002600250024002300F7
:100300000000310030002F002E002D003F000000C3
:1003100001004B004E004600010045000000AE0009
:10032000A900AA00AB000100010001000100005C6F
:100330000100010001000100000001001D5C1E5CC5
:10034000285C295C135C00000100205C255C235CB8
:10035000245C010000000100010001000100010017
:100360000100010001000100010001000100010085
:100370000000010001001250115010500A5C0000F2
:10038000C95CC75CC55CC25C010001000000CA5CBE
:10039000C85CC65CC35C01000100010004033000BE
:1003A00000001403480065006C00690078005000EC
:1003B000690063006F0000001403590075007300AA
:1003C000680061006B006F0062006F0000000403B2
:1003D000090409022200010100A032090400000101
:1003E00003010100092111010001224000070581DC
:1003F0000308000A1201100100000008EDFE603041
:1004000002000102030105010906A101050719E027
:1004100029E71500250195087501810295017508E8
:1004200081010507190029FF150026FF00950675B3
:1004300008810005081901290595057501910295A6
:100440000175039101C011241FBECFEFDAE0DEBFBA
:10045000CDBF04B603FE27C080915C0290915D027F
:10046000A0915E02B0915F028730904BA740B04BE5
:10047000D1F410925C0210925D0210925E02109212
:100480005F0214BE84B7877F84BF0FB6F894A89527
:1004900080916000886180936000109260000FBEC0
:1004A000E0E0F8E3099511E0A0E0B1E0E6EDFAE361
:1004B00002C005900D92A838B107D9F722E0A8E84C
:1004C000B1E001C01D92AC35B207E1F70E94D1172F
:1004D0000C94691D0C9400001F920F920FB60F929E
:1004E00011248F939F93EF93FF938091B900887F9E
:1004F000803869F038F48823C9F18036C9F5109244
:10050000880136C0883A09F1883BF9F031C0809102
:100510008801811111C08091BB0080938901809175
:100520008901803120F01092890180E001C081E0D2
:1005300091E0909388011DC0E0918901F0E08091E5
:10054000BB00E75CFD4F808308C0E0918901F0E0CB
:10055000E75CFD4F80818093BB008091890190E032
:1005600001968F7099278093890102C01092BC0078
:1005700081E09091BC0095688295880F880F807CFF
:10058000892B8093BC00FF91EF919F918F910F90E9
:100590000FBE0F901F9018958EE14A9B02C08150AC
:1005A000E1F74A9BFECF08955A9880E28A95F1F7C9
:1005B0005A9A0895FC014AE04A95F1F798E030E034
:1005C00080E021E040E14A95F1F7880F4A9B02C0A4
:1005D0008160322700C0000040E14A95F1F7915058
:1005E00089F790E19A95F1F729B100C0000040E148
:1005F0004A95F1F722FB992790F993272081920FD2
:1006000090830895FF920F931F93CF93DF9300D0B1
:10061000CDB7DEB71982F82E8C01802F8F1986177F
:1006200060F46A830E94CC02CE0101960E94DA0235
:10063000F80181938F016A81F0CF81E09981911156
:1006400080E00F900F90DF91CF911F910F91FF905D
:10065000089590938C0180938B0160938A01529A44
:100660005A9A089561E070E080E091E00C942903CB
:1006700090938C0180938B0160938A0152985A9ACF
:10068000EA9AE9E6F0E080818F7C8083089561E05A
:1006900070E080E091E00C943803615091E001C07B
:1006A000990F6A95EAF720E031E0992361F0492F2C
:1006B000482319F05A9A232701C05A9840E24A95D4
:1006C000F1F79695F2CF222311F05A9A01C05A9869
:1006D00080E28A95F1F75A980895EF92FF920F936E
:1006E0001F93CF93DF931F92CDB7DEB7162F082F3E
:1006F0007C018E2D801B811758F4F70181917F01B9
:1007000089830E94D40268E089810E944D03F1CF61
:100710000F90DF91CF911F910F91FF90EF9008956F
:100720001F920F920FB60F9211242F933F934F9366
:100730005F936F937F938F939F93AF93BF93CF9369
:10074000DF93EF93FF935A98529AC0918B01D09107
:100750008C016D81662321F08E819F810E946D0343
:100760000E94D40280E18A95F1F75A9852985A9AD9
:1007700080E18A95F1F76A81662351F08B819C8133
:100780000E940203E881F981811104C082E003C064
:10079000E881F98188E080830E94CC02FF91EF918B
:1007A000DF91CF91BF91AF919F918F917F916F9189
:1007B0005F914F913F912F910F900FBE0F901F901F
:1007C0001895CF93DF93C0918B01D0918C01F89451
:1007D000529A5A9885E08A95F1F7000052985A9AF1
:1007E00080E28A95F1F74A9B0AC0529A5A9AE881A8
:1007F000F98181E08083789481E090E02CC06D8164
:10080000662381F08E819F810E94020381110AC0BC
:10081000529A5A9AE881F98182E08083789482E042
:1008200090E019C00E94CC0280E28A95F1F75A98B4
:10083000529A80E18A95F1F76A81662321F08B81D3
:100840009C810E946D030E94D402E881F98110828C
:10085000789480E090E0DF91CF9108950C94E103CB
:10086000AEE1B1E041E050E08D91E82FE295EF700C
:10087000F0E021A18F70BA0102C0660F771F8A9540
:10088000E2F7CB01962F9095922391A392A1892B09
:1008900082A371E0A232B70739F708950895089549
:1008A0000C944F0480912C028360886080932C020A
:1008B0000E943004A7E1B1E041E050E08D91E82FC3
:1008C000E295EF70F0E021A18F70BA0102C0660FCF
:1008D000771F8A95E2F7CB01962F9095922391A3EB
:1008E00092A1892B82A371E0AE31B70739F7559AEF
:1008F000209A5D9A289AA6E9B1E0EEE9F1E088E055
:100900008E0F11921D928E13FCCF0E94C905809309
:10091000A6010C9427069F92AF92BF92CF92DF92CE
:10092000EF92FF920F931F93CF93DF938091090172
:10093000811103C004E010E002C000E010E0A80153
:100940004A565E4F7A01EA018EE1C82E81E0D82E28
:10095000AA24A394B12C25E0922E82E2C81681E04D
:10096000D80609F448C0F60181916F01E82FE2959D
:10097000EF70F0E021A18F70A50102C0440F551F58
:100980008A95E2F7CA01922F982B91A392A18095A4
:10099000892382A350EA5A95F1F7E7E1F1E020E0DC
:1009A00040E050E03191A32FA295AF70B0E0909657
:1009B0008C9190E03F7002C0959587953A95E2F74B
:1009C00080FD07C0C501042E01C0880F0A94EAF714
:1009D00002C080E090E0282B4F5F5F4F4730510509
:1009E00009F78881821719F02883909208010E94E4
:1009F00030042196B2CF809108018823E1F0815024
:100A000080930801882339F0EFE9FFE03197F1F78F
:100A100000C0000010C080E090E0FC01E00FF11F7A
:100A2000E256FE4FD701A80FB91F2C9120830196E3
:100A30008430910591F781E0DF91CF911F910F9163
:100A4000FF90EF90DF90CF90BF90AF909F90089570
:100A5000CF93DF9380910901811103C0C0E0D0E002
:100A600002C0C4E0D0E00E942E04009721F002975B
:100A700099F4289811C0289AC256DE4F80E090E081
:100A8000FC01EE56FE4F208129930196843091059A
:100A9000B9F780E090E002C081E090E0DF91CF9173
:100AA00008950E948B0480910901811103C0E4E044
:100AB000F0E002C0E0E0F0E0E256FE4F80E090E0BF
:100AC0002191DC01AE56BE4F2C93019684309105E6
:100AD000B9F708958091A6018823C1F10E948B0483
:100AE00080910901811103C0E4E0F0E002C0E0E080
:100AF000F0E0E256FE4F80E090E02191DC01A25749
:100B0000BE4F2C93019684309105B9F70E942805B9
:100B1000892BC1F05D988091A7018F5F8093A70119
:100B2000863060F180910901811103C0E0E0F0E0BE
:100B300002C0E4E0F0E0E256FE4F10821182128221
:100B400013821CC05D9A1092A70118C00E94510523
:100B500080910901811103C0E0E0F0E002C0E4E00F
:100B6000F0E0E256FE4F80E090E0DC01A257BE4F7D
:100B70002C912193019684309105B9F70E942F069C
:100B800081E00895E82FF0E0E256FE4F808108955D
:100B90000895E8EDF0E08081806180838AE18A95A4
:100BA000F1F700C08091D900817008950E94C905B5
:100BB000809309010E94C905882319F00E9432031D
:100BC00002C00E944703789408950C94D6050C94B3
:100BD0004E0481E0089581E008950C94EB051F9385
:100BE000CF93DF9300D000D01F92CDB7DEB74983FB
:100BF0005A832091BB0189819A81211112C06623F9
:100C000049F00E94A213182F682F89819A810E94AF
:100C1000471303C00E947613182F69817A81812FB0
:100C200004C00E94A21369817A810F900F900F90E7
:100C30000F900F90DF91CF911F910C949706FC01BC
:100C4000408151816281738184810C94EF050E94FF
:100C5000D214811102C00E9472150C94E7050C9405
:100C6000500408950C94310681E008950C943406E4
:100C7000CF93C82F0E9432068C2F0E943606CF9148
:100C8000089508950E94850E0E9441062FEF84E387
:100C90009CE0215080409040E1F700C0000087E7D1
:100CA00097E790930108809300080C9498160F938F
:100CB0001F93CF93DF93EC010E941F068C01BE01AE
:100CC0000E94ED05882349F1BE01C8010E94030975
:100CD000882319F1BE01C8010E9444098823E9F064
:100CE000BE01C8010E946F0A8823B9F08A81882357
:100CF00069F001158CE5180731F00E3D1C4531F403
:100D00000E9472150AC00E94420607C0CE01DF9100
:100D1000CF911F910F910C94E90580E0DF91CF9165
:100D20001F910F91089580E090E00895089597E055
:100D3000799FF001112498E3899FE00DF11D1124A2
:100D4000E60FF11DEE0FFF1FE450FF4F85919491C8
:100D50000895880F991FFC01E456FC4F85919491EA
:100D60000895CF93DF930E9497060E94BF07EC017E
:100D7000811520E5920708F041C0811530E4930702
:100D800008F0C7C0803E910520F5803C910508F031
:100D9000B1C0883A910570F4853A910508F0A2C077
:100DA0008130910509F4E7C008F4E3C0049708F026
:100DB000E2C0DFC08F3B910508F0DBC0C85AD0E02D
:100DC000CC0FDD1FCA5DDE4F0990D881C02DD464E1
:100DD000D2C0811540E2940750F4C11581E0D807D4
:100DE00008F0C9C0C83ED10508F4C5C0C2C081150D
:100DF00020E3920708F084C09F707EC0811535E51E
:100E0000930708F044C0811544E5940708F098C0A2
:100E1000C11582E5D80708F5C11521E5D20708F00C
:100E20007BC08C2F837021E030E002C0220F331F83
:100E30008A95E2F73C68CE0174E0969587957A959D
:100E4000E1F78370382BCF70C695C69580E2C89FB6
:100E5000E0011124C22BD32B8EC02C2F2695269572
:100E6000CE0183709927C115D34508F05AC040E2DE
:100E7000249F90011124C1E0D0E002C0CC0FDD1FFF
:100E80008A95E2F72C2B3D2BE901DC6874C08115B3
:100E900049E59407A0F4C11588E5D80708F055C0C6
:100EA000C11526E5D20708F064C08C2F0E945308B4
:100EB0008F71C82FD0E0DC2FCC27D0625CC08115A9
:100EC0003AE5930708F446C090568115904208F021
:100ED00050C08D2F8F710E945308DD27D0628F7113
:100EE000D82B49C0C55AD0E0CC5ADE4FC881D0E0DB
:100EF000D06441C0805C91090E94A906EC013BC00E
:100F00009927D3FF03C0EC01D86C35C0EC01D06C3D
:100F100032C0DF70D06A2FC0DC2FCC27C16FD06AFF
:100F20002AC040E2249F90011124C1E0D0E002C019
:100F3000CC0FDD1F8A95E2F7C22BD32BDA681BC0DA
:100F4000D82FCC27C46FD06A16C0DC2FCC27C06F37
:100F5000D06A11C08F700E94530894E0D695C7954F
:100F60009A95E1F7CF70D0E0DC2FCC27D069C82B61
:100F700002C0C0E0D0E0CE01DF91CF910895823869
:100F8000910569F1B0F48133910509F46DC048F41D
:100F90008932910509F463C08A32910509F469C068
:100FA00008958533910509F455C089339105B9F049
:100FB0000895833E910569F138F4803E9105B1F0C2
:100FC000823E910509F10895863E9105A9F1873E7B
:100FD0009105B9F1843E910509F064C023C02091C8
:100FE0004D0220FD4FC021FD4DC0089580914D025E
:100FF00080FD44C080914E0280FF44C080914D022C
:1010000084FD42C083EE4DC080914D0282FF38C006
:10101000F5CF80914D0282FD33C080914E0280FD5C
:1010200031C0ECCF80914E0281FF32C080914D02E1
:1010300084FD2AC087EE35C080914D0283FF26C013
:10104000F5CF80914D0283FD21C080914E0281FD3C
:101050001FC0ECCF80914D0285FD1CC01DC080914A
:101060004D0285FD19C016C080914D0286FD16C047
:1010700017C080914D0286FD13C010C089E311C0D6
:1010800082EE0FC080EE0DC080E00BC086EE09C07E
:1010900084EE07C089E205C085E303C08AE201C08F
:1010A00081E390E0089590914D0292FF0DC0282FAA
:1010B0002871283019F4877F846006C0282F247196
:1010C000243011F48B7F886093FF0DC0282F287186
:1010D000283119F4877E846106C0282F24712431B9
:1010E00011F48B7E886120914E0220FF0DC0382FB5
:1010F0003871383019F4877F816006C0382F31711C
:10110000313011F48E7F886021FF0DC0282F2871A7
:10111000283119F4877E816106C0282F2171213181
:1011200011F48E7E886194FD877E08950F931F933E
:10113000CF93DF93C62FD42F022FFC018281882307
:10114000C9F06093AA010E943C169093A901809374
:10115000A80180E28C0F883008F050C0C77081E091
:1011600001C0880FCA95EAF7DF91CF911F910F91C7
:101170000C94420C1091AA01161330C08091A80162
:101180009091A9010E9448168436910538F5C0E275
:10119000CD0F1D17B9F080E2810F883040F4177031
:1011A00081E001C0880F1A95EAF70E94490CC83007
:1011B00048F481E09D2F977001C0880F9A95EAF757
:1011C0000E94420C802F0E942F0CC830B8F4D770B8
:1011D00081E001C0880FDA95EAF70AC080E28C0F3F
:1011E000883060F4C77081E001C0880FCA95EAF7C3
:1011F000DF91CF911F910F910C94490CDF91CF910A
:101200001F910F9108959C01CB01233F4CE53407BA
:10121000F9F078F4283DFCE53F07B9F0293D4CE5AD
:10122000340711F1273D3C4531F526E241EE61EEF0
:101230001EC0253FFCE53F0799F070F0263F3C4576
:10124000D1F427E245EE66EE12C027E245EE0EC06D
:1012500026E241EE60EE0BC027E245EE64EE07C0E9
:1012600026E241EE62EE03C028E241E065EE0E9414
:10127000960880E00895FC018281882319F010927D
:10128000AA01089581E00895CF93DF93EC01FB015B
:101290008281882309F41FC1C230FCE5DF0708F40E
:1012A0001BC1C6319CE5D90738F09E012A5F3C4539
:1012B0002930310508F010C10E94E51490934E02C8
:1012C00080934D02C031ECE5DE0709F4C3C008F09D
:1012D00041C0C8308CE5D80709F49AC0F0F4C43096
:1012E000ECE5DE0709F487C068F4C2308CE5D80766
:1012F00009F477C0C330DC4509F0E3C080914D02AA
:10130000826076C0C630ECE5DE0709F46EC008F0F6
:101310007BC080914D0288606BC0CC308CE5D807D3
:1013200009F485C068F4CA30ECE5DE0709F474C03E
:1013300008F079C00E94850E80914D02806858C0E7
:10134000CE308CE5D80709F476C008F07FC08091D4
:101350004D028BC0CB3FECE5DE0709F44FC018F51A
:10136000C3318CE5D80709F47DC078F4C131ECE5D0
:10137000DE0709F473C0C231DC4509F0A2C00E9447
:10138000850E80914D028F7733C0C5318CE5D8072B
:1013900009F472C008F486C0CA3FDC4509F091C068
:1013A00080914E023EC0CF3FFCE5DF0709F45FC0ED
:1013B00058F4CD3F9CE5D90709F444C008F43FC078
:1013C00080914E0282602DC0C130FDE5DF0709F437
:1013D00075C008F45DC0C230DD4509F072C080E020
:1013E0006EC080914D02816003C080914D0280618A
:1013F00080934D0266C080914D0211C080914E02D3
:10140000826080934E025DC080914D028062F0CF79
:1014100080914D028064ECCF80914D0288608460A1
:10142000E7CF8160EECF80914D028E7FE1CF80913A
:101430004D028D7FDDCF80914D02877FD9CF809186
:101440004E0218C080914E028D7FDBCF80914D02FD
:101450008F7ECECF80914D028F7DCACF80914D027D
:101460008F7BC6CF80914D02877F8B7FC1CF8091CC
:101470004E028D7F8E7FC5CF80914D0282FB222749
:1014800020F991E0922790FB82F990FB83F9B0CF8D
:1014900080914E02982F909591708E7F892B90FBB2
:1014A00081F9AFCF0E94850E80914D0287FB2227E4
:1014B00020F991E0922790FB87F99ACF81E00E9472
:1014C000741580914D0290914E020E94F6140E9474
:1014D000850E80E001C081E0DF91CF910895CF9328
:1014E000DF9386319C4541F5EB010E942214282FA1
:1014F0008A8140910A0150910B01882379F02A7A60
:1015000091E009F490E09093AB01911102C069E27F
:1015100001C065E3CA010E94AB150AC08091AB010E
:10152000811102C069E201C065E3CA010E94AD15E4
:101530000E946E1480E001C081E0DF91CF91089598
:101540009093B1018093B0010895E091B001F091C2
:10155000B101309721F00190F081E02D099480E0F5
:101560000895E091B001F091B101309721F002802F
:10157000F381E02D099408952091AE013091AF01DF
:101580008217930771F09093AF018093AE01E091C1
:10159000B001F091B101309721F00680F781E02D84
:1015A000099408952091AC013091AD018217930701
:1015B00071F09093AD018093AC01E091B001F09196
:1015C000B101309721F00084F185E02D0994089550
:1015D00085B7806885BF85B7806885BF0895089501
:1015E0000C94EF0A08950C94F20A0E94E80A0E94F3
:1015F000E5050C94F00A81E008950E9433160E94DC
:1016000052040E94A9160C94F30ABF92CF92DF9263
:10161000EF92FF920F931F93CF93DF93CDB7DEB777
:101620002B970FB6F894DEBF0FBECDBF0E946A05A0
:101630000E94FB0A811111C08FEF89838A831B826C
:101640000E943C168160782F9D838C8349815A814A
:101650006B818D810E949A0B42C083EBC82E81E082
:10166000D82E00E010E0B02E802F0E94C205F601B7
:10167000E1906F01E82631F40F5F1F4F083011052C
:1016800091F7DACF90912C0291FF04C08B870E94D2
:10169000C8058B8590E0FF24F3942F2D2E21D1F0E7
:1016A0009E83BF828F2191E009F490E098870E9489
:1016B0003C168160782F9A8789874E815F81688583
:1016C0008A850E949A0BF801ED54FE4F8081F8261E
:1016D000F08205C09F5FFF0C9730F9F6CDCF1091D7
:1016E000B2010E94A50A1817A9F00E94A50A8093CA
:1016F000B2012B960FB6F894DEBF0FBECDBFDF91BF
:10170000CF911F910F91FF90EF90DF90CF90BF90FE
:101710000C9438062B960FB6F894DEBF0FBECDBFE3
:10172000DF91CF911F910F91FF90EF90DF90CF90BD
:10173000BF900895CF93DF93CDB7DEB72B970FB649
:10174000F894DEBF0FBECDBF4F83588769877A8775
:101750008B87DE01119686E0FD0111928A95E9F7EB
:1017600085E0FE01379601900D928A95E1F7498157
:101770005A816B817C818D819E810E9417112B96ED
:101780000FB6F894DEBF0FBECDBFDF91CF910895A5
:10179000FC01808191810E94E3130895882391F1D7
:1017A000682F8CEF860F813A38F480910A0190916E
:1017B0000B010E94AB150CC080E2860F883050F4FC
:1017C000677081E001C0880F6A95EAF70E942514CE
:1017D0000C946E14EBE5E60FE33038F4F0E0EB57D1
:1017E000FE4F808190E00C94BC0A685A673150F437
:1017F000E62FF0E0EE0FFF1FE95AFE4F8081918146
:101800000C94D20A0895882349F1682F8CEF860F33
:10181000813A38F480910A0190910B010E94AD1534
:101820000CC080E2860F883050F4677081E001C000
:10183000880F6A95EAF70E942B140C946E148BE5BE
:10184000860F833020F480E090E00C94BC0A685A44
:10185000673120F480E090E00C94D20A0895CF9391
:10186000C82F0E94CE0BC93349F42FEF87EE93E0C7
:10187000215080409040E1F700C000008C2FCF91B4
:101880000C94030C882321F00E9425140C946E14F0
:101890000895882321F00E942B140C946E1408954F
:1018A000BF92CF92DF92EF92FF920F931F93CF934D
:1018B000DF937C01062FC72FFC01D581D295DF7005
:1018C000128111110E9442140E941B14882379F086
:1018D000112369F080E2800F883048F082E00E9496
:1018E000B9140E941B1491E0B82EB92601C0B12C86
:1018F000CC2EC2948FE0C822D12CF601EA5AFF4FB9
:101900000C94211D8C2F807FCF70882311F0C295FD
:10191000C07F112399F0CC2309F46CC180E2800FC1
:10192000883010F0011104C08C2F0E94251403C0D0
:101930008C2F0E9435140E946E145CC1802F0E946F
:10194000030CCC2309F47BC180E2800F883010F0B7
:10195000011104C08C2F0E942B1403C08C2F0E94F5
:101960003B140E946E146BC18C2F807FCF7080322D
:1019700011F0C295C07F002319F00130C9F022C0D8
:10198000112371F0DD2341F0D13031F40E94551460
:101990008C2B0E945B1453C10E9455148C2B1DC0CC
:1019A000DD2319F0D13009F44AC10E94641425C026
:1019B000112321F0D63008F042C10EC0D53008F016
:1019C0003EC11BC0112361F0DD2331F0F701858199
:1019D00080FF10C18F7085838C2F0E94420C2FC115
:1019E000DD2359F0093309F016C1FFEF27EE83E03C
:1019F000F15020408040E1F70CC18C2F0E94490C2F
:101A00001EC18C2F837009F049C011111FC1402FD6
:101A1000429546954770440F440F602F6F70862F94
:101A200090E0A0E0B0E0042E04C0880F991FAA1F28
:101A3000BB1F0A94D2F704FF10C00FE010E020E0B3
:101A400030E004C0000F111F221F331F4A95D2F748
:101A5000009510952095309503C000E010E09801A6
:101A6000C695C695C370D0E0BC01CD01602B712B2B
:101A7000822B932BC230D10559F0C330D10559F0D8
:101A8000219719F00E945C12E1C00E944A12DEC048
:101A90000E946E12DBC00E944812D8C0112319F0B8
:101AA0008C2F817001C08695882309F4CFC0402F08
:101AB000429546954770440F440F602F6F70862FF4
:101AC00090E0A0E0B0E0042E04C0880F991FAA1F88
:101AD000BB1F0A94D2F704FF10C00FE010E020E013
:101AE00030E004C0000F111F221F331F4A95D2F7A8
:101AF000009510952095309503C000E010E0980106
:101B0000C695C695C370D0E0BC01CD01602B712B8A
:101B1000822B932BC230D10559F0C330D10559F037
:101B2000219719F00E94221391C00E9410138EC0B9
:101B30000E9434138BC00E94831288C0CF7011237F
:101B400039F08C2F0E94A912802F0E94420C7EC077
:101B5000802F0E94490C8C2F0E94CA1277C0023F2E
:101B600001F128F4003F41F0013FA1F03FC0033FE5
:101B7000F9F0043F39F13AC0112341F0D53008F0B3
:101B80005EC08C2F8F710E94EF1259C0D63008F0C2
:101B900056C0F7CF112339F08C2F8F710E94A912F4
:101BA0004EC01123C9F38C2F8F710E94CA1247C0F7
:101BB000112329F08C2F8F710E94941240C00E9433
:101BC0008F123DC0112349F0CF718C2F0E94A912B2
:101BD00063E08C2F0E94A41432C081E00E94B914EB
:101BE000D23068F182E00E94B91429C0112331F08B
:101BF000DD2391F2802F0E94CE0B21C0DD2399F2CC
:101C0000093349F49FEFE7EEF3E09150E040F040F4
:101C1000E1F700C00000802F0E94030C10C04C2F81
:101C20004F70602FC7010E9493060E94BB1112C023
:101C30004C2F4F70602FC7010E9496060BC028E002
:101C4000C21AD10884E0C816D10420F40E94A50A63
:101C50000E943806BB20D1F00E94171480FD16C0E8
:101C6000F70112820E9411140E94A912C7010E945A
:101C7000500E0E941114DF91CF911F910F91FF9090
:101C8000EF90DF90CF90BF900C94CA12DF91CF916C
:101C90001F910F91FF90EF90DF90CF90BF9008952C
:101CA0000F931F93CF93DF93EC01888199812B8150
:101CB0003C81232BB9F09F3F11F48F3F99F0CE0167
:101CC0000E945706882371F0688179818A810E9479
:101CD000EE138C010E9446130E944712B801CE01F8
:101CE0000E94500CDF91CF911F910F9108950E9497
:101CF00042140E9452140C946E1480910A01909127
:101D00000B010E94AF150C94770E0E9432140C94B4
:101D10007D0EE92FE295EF70F0E03297EE30F1059D
:101D2000B0F4EA59FF4F0C94211D803F91F018F454
:101D3000883E68F40EC0843F51F40BC0883E48F0E2
:101D4000813F29F406C093FB882780F9089580E03D
:101D5000089581E008950E94E3130E94890E08957A
:101D6000CF93DF9300D000D01F92CDB7DEB70F9096
:101D70000F900F900F900F90DF91CF910895CF9318
:101D8000DF9300D000D000D0CDB7DEB726960FB6D7
:101D9000F894DEBF0FBECDBFDF91CF9108951F93A2
:101DA000CF93DF93C091BC0116E08091BD01C817AD
:101DB00099F0D0E01C9FF0011D9FF00D1124E2541A
:101DC000FE4F4081518162817381848195810E949F
:101DD000BF0E2196C770E9CFDF91CF911F91089573
:101DE0004091EE015091EF016091F0017091F1018D
:101DF0008091F2019091F3010C94BF0E8091F30158
:101E000082958F7009F054C08091F001882309F405
:101E10004FC08091BC01A091BD016091EE01709115
:101E2000EF014091F1015091F201B6E08A1709F4F7
:101E30003FC090E041155105C1F17F3F11F46F3F64
:101E4000A1F1B89FF001B99FF00D1124E254FE4FAB
:101E5000218172132AC02081621327C0228121119F
:101E600024C0238134812417350710F4215031090F
:101E7000241B350B24363105C0F42091F3012F705B
:101E800020612093F30126E0289FF001299FF00DA7
:101E90001124ED53FE4F80818F70806180838EEE20
:101EA00091E00E94500E0C94CF0E01968770BECF29
:101EB0000895CF92DF92EF92FF920F931F93CF93EB
:101EC000DF93CDB7DEB762970FB6F894DEBF0FBED3
:101ED000CDBF7C0185E0F701DE011D9601900D92DA
:101EE0008A95E1F7D7014C9111965C911197129662
:101EF0006C9112971396CD90DC9014973091EE016F
:101F00007091EF018091F1019091F201009709F435
:101F100053C17F3F19F43F3F09F44EC10091F001D6
:101F2000002309F4CBC02091F301C816D90628F08C
:101F3000F601E81BF90BCF0104C0809590958C0D3C
:101F40009D1D11E08436910578F010E0207F09F0A6
:101F5000D2C07C2DD98AC88A89890E94B00E8EEEA3
:101F600091E00E94500EBDC0822F807F09F046C0D4
:101F7000751314C0341312C0611110C02F7020618A
:101F80002093F3010E94F00E8EEE91E00E94500E1D
:101F90008091F301D70115968C932EC0CD2819F1AD
:101FA0005F3F11F44F3FF9F0162F61111CC0809173
:101FB000BC012091BD0136E0821709F466C090E0B3
:101FC000389FF001399FF00D1124E254FE4F7181CA
:101FD000571306C07081471303C07281711103C08B
:101FE00001968770E9CF162F662309F410C18091FE
:101FF000F30181608093F30110E009C1751315C0EE
:10200000341313C0611111C08091F301D7011596EB
:102010008C93C7010E94500E86E0F701AEEEB1E04E
:1020200001900D928A95E1F763C04D875E878D859B
:102030009E856A8B0E94AB0E6A898823D9F166233C
:10204000C9F12091F301822F82958F7090E0029761
:1020500074F08091EE019091EF0198878F8319863B
:10206000DB86CA862C87CE0107960E94500E86E03A
:10207000F701AEEEB1E001900D928A95E1F70E9472
:10208000FE0E0E94F00E11E0C2C04D875E878D8566
:102090009E850E94E313292F22952F7030E0223075
:1020A00031050CF0A8C09F7009F0A2C0805E883096
:1020B00008F4ADC0C7010E94500EE5CFC816D9067E
:1020C00008F453C0F601E81BF90BCF0184369105E3
:1020D00008F450C010E07C2DD98AC88A89890E94F2
:1020E000B00EEEEEF1E086E0DF011D928A95E9F791
:1020F0000E94F00E8CC0751314C0341312C061110D
:1021000010C08091F301F7018583C7010E94500E32
:1021100086E0EEEEF1E0DF011D928A95E9F7102FDF
:1021200076C04D875E878D859E856A8B0E94AB0E3B
:102130006A89882309F4BECF662309F4BBCF2091B6
:10214000F301822F82958F7090E002970CF48FCF6D
:102150008091EE019091EF019A8389831B82DD8249
:10216000CC822E83CE01019680CF809590958C0DE8
:102170009D1DACCF162F662309F49CCF75130BC0A1
:10218000341309C086E0F701AEEEB1E001900D9284
:102190008A95E1F73CC04D875E878D859E850E94BC
:1021A000AB0E811164CF8091F30181608093F301C4
:1021B000C7010E94500E2BC0662309F47BCF4D87C8
:1021C0005E878D859E850E94AB0E182F882309F4AB
:1021D00071CF86E0F701AEEEB1E001900D928A95E5
:1021E000E1F78EEE91E00E94C80B0E94FE0E80CFB8
:1021F00081115CCF0CC0243031050CF05BCF9F7097
:1022000009F454CFF7019581907F09F04FCF812FCA
:1022100062960FB6F894DEBF0FBECDBFDF91CF91AF
:102220001F910F91FF90EF90DF90CF9008951F9333
:10223000CF93DF93CDB7DEB72C970FB6F894DEBF00
:102240000FBECDBF4F83588769877A878B879C875E
:10225000CE0107960E94590F882369F08F819885D7
:102260002A853B85232BF1F19F3F09F063C08F3F07
:1022700009F060C037C086E0FE013796DE01119696
:1022800001900D928A95E1F76F817885EA85FB854B
:10229000309741F17F3F11F46F3F21F12091BD0153
:1022A00030E0C9010196877099274091BC0150E048
:1022B0008417950709F447C069837A83FD83EC830B
:1022C00096E0929FD001939FB00D1124A254BE4F6F
:1022D000FE01319601900D929A95E1F78093BD0130
:1022E0000E94CF0E16E08091BC019091BD0189172C
:1022F000C1F1189FC001112482549E4F0E94590FB2
:10230000882379F1E091BC011E9FF0011124E25471
:10231000FE4F4081518162817381848195810E9449
:10232000BF0E8091BC0190E0019687709927809341
:10233000BC01D9CF4F81588569857A858B859C856D
:102340000E94BF0ECFCF0E94850E1092BD01109249
:10235000BC01EEEEF1E086E0DF011D928A95E9F71F
:10236000C1CF2C960FB6F894DEBF0FBECDBFDF9164
:10237000CF911F910895EF92FF920F931F93CF93E8
:10238000DF938C01892B09F46CC0F12CEE24E394CB
:10239000E8012196F8018491843740F4843008F0F4
:1023A00051C0813081F0823019F15BC0853709F46A
:1023B00044C0A8F19CE7980F903708F052C08F777F
:1023C0000E94030C41C00E5F1F4FFE01C49180E2CA
:1023D0008C0F883048F4C7708E2D01C0880FCA95C5
:1023E000EAF70E94451414C08C2F0E94CE0B2DC01A
:1023F0000E5F1F4FFE01C49180E28C0F883058F4AD
:10240000C7708E2D01C0880FCA95EAF70E944B1441
:102410000E946E141AC08C2F0E94030C16C00E5F0F
:102420001F4FFE01C491CC2381F08FE99FE00197FB
:10243000F1F700C00000C150F6CF0E5F1F4FFE0144
:10244000F49003C00E94CE0B8E018F2D882309F4D7
:102450009FCFEFE9FFE03197F1F700C00000815016
:10246000F5CFDF91CF911F910F91FF90EF900895DD
:1024700008950C9438120E94391260931B027093D5
:102480001C0280931D0290931E020C94770E0895F7
:102490000C943B120F931F9300911B0210911C028E
:1024A00020911D0230911E02602B712B822B932BE9
:1024B0001F910F910C943B120F931F9300911B02DD
:1024C00010911C0220911D0230911E026023712385
:1024D000822393231F910F910C943B120F931F9310
:1024E00000911B0210911C0220911D0230911E02CE
:1024F00060277127822793271F910F910C943B121D
:1025000008950C9480120E948112609317027093B8
:1025100018028093190290931A020C94770E60E0CF
:1025200070E0CB010C9483120F931F9341E050E0B5
:1025300060E070E08A019B0104C0000F111F221FA0
:10254000331F8A95D2F7C901B8011F910F910C94DE
:1025500083120F931F9341E050E060E070E004C0ED
:10256000440F551F661F771F8A95D2F78091170277
:1025700090911802A0911902B0911A028A019B0150
:10258000082B192B2A2B3B2BC901B8011F910F9146
:102590000C9483120F931F9341E050E060E070E0D1
:1025A00004C0440F551F661F771F8A95D2F74095C8
:1025B0005095609570958091170290911802A091A6
:1025C0001902B0911A028A019B01082319232A23B8
:1025D0003B23C901B8011F910F910C9483120F93F3
:1025E0001F9341E050E060E070E004C0440F551FCD
:1025F000661F771F8A95D2F7809117029091180273
:10260000A0911902B0911A028A019B01082719278B
:102610002A273B27C901B8011F910F910C948312FF
:102620000F931F9300911702109118022091190225
:1026300030911A02602B712B822B932B1F910F91DB
:102640000C9483120F931F9300911702109118029C
:102650002091190230911A0260237123822393235F
:102660001F910F910C9483120F931F9300911702E7
:10267000109118022091190230911A0260277127D7
:10268000822793271F910F910C948312089527E0BE
:10269000929F800D1124A82FA695A695A6958770C8
:1026A00051E001C0550F8A95EAF785E0A89FD00157
:1026B000112420E030E070E0F901EA0FFB1FEC503C
:1026C000FE4F4081CB01022E02C0969587950A9459
:1026D000E2F7817099278195842785238427808359
:1026E0002F5F3F4F2530310539F7089527E0929F3E
:1026F000800D1124682F669566956695982F9770C2
:1027000085E0689FB001112440E050E080E0FA01CC
:10271000E60FF71FEC50FE4F208130E0092E02C07B
:10272000369527950A94E2F721703327042E01C0CD
:10273000220F0A94EAF7822B4F5F5F4F4530510515
:1027400031F70895BF92CF92DF92EF92FF920F93ED
:102750001F93CF93DF938C01C0901B02D0901C027B
:10276000E0901D02F0901E028091170290911802D5
:10277000A0911902B0911A02C82AD92AEA2AFB2A82
:10278000CFE1D0E0D701C6010C2E04C0B695A795C5
:10279000979587950A94D2F780FF07C0BC2EB801A1
:1027A0008C2F0E94B106019719F4219758F7B12C8C
:1027B0008B2DDF91CF911F910F91FF90EF90DF90C4
:1027C000CF90BF900895CF93DF93EC010E94A213A6
:1027D000BE010E94B106DF91CF9108951F93CF9360
:1027E000DF93EB019091BB01992321F0CB010E9473
:1027F000E31313C0882349F0CB010E94A213182FC2
:10280000682FCE010E94471304C0CB010E947613AB
:10281000182FBE01812F0E94B106DF91CF911F9129
:10282000089580911F0285958595859508958091DD
:102830001F028770089590911F02977081E009F43C
:1028400080E0089580912B02089590912B02892BAE
:1028500080932B020895809590912B028923809379
:102860002B02089510922B02089590912A02892B31
:1028700080932A020895809590912A02892380935B
:102880002A02089510922A02089590912902892B14
:10289000809329020895809590912902892380933D
:1028A0002902089510922902089580912002089526
:1028B00008950C94581490912002981721F0809359
:1028C00020020C945914089580912002882329F045
:1028D0001092200280E00C9459140895E0910A01AE
:1028E000F0910B0180912B028083E0910A01F0911D
:1028F0000B01908180912A02892B8083E0910A014B
:10290000F0910B01908180912902892B8083809125
:102910002002882381F0E0910A01F0910B0190815F
:10292000892B808380910A0190910B010E94791577
:1029300081110E94641480910A0190910B010C9402
:10294000B10A08950C94A11498E0899F9001112474
:10295000262B20931F020E94A91280911F028595A9
:10296000859585950C94A21410921F0280E00C941A
:10297000A21420911F028095822380931F02982F1A
:10298000977079F430E0482F082E000C550B24176F
:10299000350739F08595859585950E94CA120C9466
:1029A000B414089580E090E00E942F1D21E08C3E39
:1029B0009E4F09F020E0822F089582E090E00C9471
:1029C000271D83E090E00C94271DCF9384E090E0D6
:1029D0000E94271DC82F81E290E00E94271D2C2F06
:1029E00030E0A901582BCA01CF910895CF93C92F88
:1029F000682F84E090E00E94351D6C2F81E290E00A
:102A0000CF910C94351DAB01BC018FE090E00C948C
:102A1000471DAB01BC0183E190E00C94471D60E0D1
:102A200070E0CB010C94091560E070E0CB010E94CE
:102A300003150C940F156CEE7EEF80E090E00E9481
:102A4000531D60E082E090E00E94351D60E083E06D
:102A500090E00E94351D10921B0210921C021092F1
:102A60001D0210921E0260E084E090E00E94351D7D
:102A700060E081E290E00E94351D60E085E090E03A
:102A80000E94351D60E086E090E00E94351D6FEFEA
:102A900087E090E00E94351D40E050E0BA0188E0F8
:102AA00090E00E94471D60E08DE090E00E94351D9F
:102AB00040E050E0BA0188E190E00E94471D60E0EC
:102AC00087E190E00E94351D40E050E0BA018CE1C2
:102AD00090E00E94471D60E080E290E00E94351D7A
:102AE0000C9414150C941B15682F8EE090E00C9438
:102AF000351DFC01329697E080E0915029F021913C
:102B00002223D9F38F5FF9CF08959C01FC013296FF
:102B10009FEF80E04191461789F09F3F19F44111E2
:102B200001C0982F8F5F8630A9F79F3F39F0F901D8
:102B3000E90FF11D97FDFA95628308950895FC0150
:102B4000329608962081261301C010823196E8172C
:102B5000F907C1F708950C9485150C949F150296FA
:102B600026E0FC0111922A95E9F7089508950C9446
:102B7000B6150E94B71580915302843049F1109226
:102B80002D0220E488E190E00FB6F894A895809398
:102B900060000FBE2093600080E00E9438060E9413
:102BA000B71583B7817F846083BF83B7816083BF9C
:102BB0007894889583B78E7F83BF0FB6F894A895D5
:102BC00080916000886180936000109260000FBE69
:102BD000089508950895CF930E94E9150E946A050B
:102BE0000E94EA15C0E08C2F0E94C205811104C02A
:102BF000CF5FC830C1F701C081E0CF91089508953B
:102C00000C94FF150E94850E0E94A50A0E943806AA
:102C10000C9400161F920F920FB60F9211248F93EF
:102C20009F93AF93BF9380912D02811113C0809128
:102C3000490290914A02A0914B02B0914C024196F8
:102C4000A11DB11D8093490290934A02A0934B02AB
:102C5000B0934C02BF91AF919F918F910F900FBE97
:102C60000F901F90189582E084BD93E095BD9AEF78
:102C700097BD80936E0008952FB7F8948091490214
:102C800090914A02A0914B02B0914C022FBF08953F
:102C9000CF92DF92EF92FF920F931F932FB7F8948A
:102CA0004091490250914A0260914B0270914C024E
:102CB0002FBF6A017B01EE24FF248C0120E030E06D
:102CC000C016D106E206F30610F4415051099A01EC
:102CD000281B390BC9011F910F91FF90EF90DF90D6
:102CE000CF90089578941F920F920FB60F921124EF
:102CF0008F939F93AF93BF938091490290914A0223
:102D0000A0914B02B0914C020196A11DB11D809380
:102D1000490290934A02A0934B02B0934C02BF9198
:102D2000AF919F918F910F900FBE0F901F901895AC
:102D300087E797E790930108809300089AE088E17D
:102D40000FB6F894A895809360000FBE9093600032
:102D5000FFCF0E94D214811102C00E9472150E94FE
:102D6000DD1480932C020E94E51490934E02809310
:102D70004D020E94E114682F70E080E090E00C9416
:102D80004812809136020895089508950895CF93CA
:102D9000DF93EC010E946818823011F0843039F51D
:102DA00081E08093E9008FEF9091E800815095FDDC
:102DB00006C095ED9A95F1F700008111F5CF80914D
:102DC000E80085FF14C040E050E068E070E0CE010C
:102DD0000E9485188091E8008E778093E80088E053
:102DE000FE01AEE2B2E001900D928A95E1F7DF912B
:102DF000CF91089580915202811109C00E941A1A40
:102E00000E94771A8091E20084608093E200089526
:102E1000109252020895089508950C94021642E00B
:102E200061EC81E00C94941980915502833009F48F
:102E300060C030F4813071F0823009F499C0089597
:102E40008A3009F485C08B3009F46BC0893009F0F1
:102E5000A7C020C080915402813A09F0A1C080919E
:102E6000E800877F8093E800809158029091590292
:102E7000892B21F468E08EE292E003C060E080E0FC
:102E800090E070E00E94D0188091E8008B778093EA
:102E9000E800089580915402813209F081C0809148
:102EA000580290915902892B09F07AC08091E8006C
:102EB000877F8093E8008091E80082FD05C08091C3
:102EC00053028111F8CF6CC02091F3008091F20081
:102ED00090E0922B029729F48091F1008B7F813052
:102EE00021F48091F100809336028091E8008B7785
:102EF00053C080915402813A09F052C08091580227
:102F000090915902892B09F04BC08091E800877F8E
:102F10008093E8008091E80080FFFCCF809116014B
:102F200036C0809154028132D9F580915802909137
:102F30005902892BA9F58091E800877F8093E800EA
:102F40000E94C91980915602809316010C94850E37
:102F500080915402813221F58091E800877F80932F
:102F6000E8000E94C91980915702809337020895A2
:102F700080915402813AA1F48091E800877F809388
:102F8000E8008091E80080FFFCCF809137028093B9
:102F9000F1008091E8008E778093E8000C94C919C5
:102FA000089584B7877F84BF0FB6F894A895809161
:102FB0006000886180936000109260000FBE90E016
:102FC00080E80FB6F89480936100909361000FBE83
:102FD0000E94F50A0E941A1A0E94771A8091E20054
:102FE00084608093E20078940E94061D0E94FD0A8E
:102FF0008CE091E00E94A00A80915302853069F430
:103000000E94B915809151028823B1F30E94EB15FB
:10301000882391F30E946F18EFCF0E94050BECCF2D
:103020000C941218292F332723303105C1F05CF49A
:103030002130310579F022303105D1F582E290E07E
:1030400022ED33E039C02132310521F12232310540
:1030500041F12EC082E190E024EF33E02DC09927AA
:103060008130910571F02CF4892B11F5EEECF3E031
:103070000DC08230910541F00397D1F4ECE9F3E003
:1030800005C0E8EBF3E002C0E2EAF3E0849190E0EF
:103090009F0112C0672B61F489E090E024EE33E0D9
:1030A0000BC0672B29F480E490E026E034E004C0F4
:1030B00080E090E020E030E0FA0131832083089541
:1030C00080915302843011F081E0089582E00895E8
:1030D00080913802811102C00C946018089580E13B
:1030E00089BD82E189BD09B400FEFDCF8091D80081
:1030F0008F7D8093D8008091E00082608093E00013
:103100008091E00081FDFCCF0895CF92DF92EF9295
:10311000FF920F931F93CF93DF93EC018B016A0112
:103120000E94E819811133C0C114D10439F0F601AD
:1031300080819181081B190BC80FD91FE12CF12C3C
:103140000115110519F18091E80085FD16C08091E7
:10315000E8008E778093E800C114D10449F0F601AD
:1031600080819181E80EF91EF182E08285E00FC036
:103170000E94E819882321F30AC089918093F10005
:1031800001501109FFEFEF1AFF0ADACF80E0DF915B
:10319000CF911F910F91FF90EF90DF90CF90089506
:1031A00020915A0230915B022617370748F06115CB
:1031B000710539F42091E8002E772093E80001C0D2
:1031C000B90140E061157105A9F120915302222354
:1031D00009F443C0253009F442C02091E80023FDE2
:1031E00040C02091E80022FD32C02091E80020FF7D
:1031F000E9CF4091F3002091F20030E0342BFC0144
:10320000CF016115710559F02830310540F48191E5
:103210008093F100615071092F5F3F4FF1CF41E082
:103220002830310509F040E02091E8002E77209306
:10323000E800C8CF4111C9CF0AC08091530288234A
:1032400061F0853061F08091E80083FD0AC08091D3
:10325000E80082FFF2CF80E0089582E0089583E0E5
:10326000089581E0089520915A0230915B0226175B
:10327000370748F06115710539F42091E8002E7781
:103280002093E80001C0B901FC0120E0611571053F
:1032900091F180915302882309F440C0853009F4EC
:1032A0003FC08091E80083FD3DC08091E80082FD31
:1032B0002FC08091E80080FFE9CF2091F30080913A
:1032C000F20090E0922B6115710559F0883091055C
:1032D00040F424912093F1003196615071090196D8
:1032E000F2CF21E0089709F020E08091E8008E7786
:1032F0008093E800CBCF2111CCCF0AC0809153023C
:10330000882361F0853061F08091E80083FD0AC078
:103310008091E80082FFF2CF80E0089582E0089576
:1033200083E0089581E00895982F973058F59093A1
:10333000E900981739F07091EC002091ED00509160
:10334000F00003C0242F762F50E021FF19C03091E8
:10335000EB003E7F3093EB003091ED003D7F3093EA
:10336000ED003091EB0031603093EB007093EC0096
:103370002093ED005093F0002091EE0027FF07C04E
:103380009F5FD3CF8F708093E90081E0089580E044
:1033900008958091540287FF11C08091E80082FD5A
:1033A00005C0809153028111F8CF11C08091E800CF
:1033B0008B770BC080915302882349F08091E800FD
:1033C00080FFF8CF8091E8008E778093E800089521
:1033D0002091E4003091E50095E64091EC00842FC7
:1033E000817040FF22C08091E80080FD1CC0809168
:1033F0005302882391F0853091F08091EB0085FD98
:1034000010C04091E4005091E5004217530729F3A2
:103410009A01915011F784E0089582E0089583E0C5
:10342000089581E0089580E008954091E80042FF0A
:10343000DECF08950E94881A0E94901AE0EEF0E014
:10344000808181608083E8EDF0E080818F778083E8
:1034500019BCA7EDB0E08C918E7F8C9380818F7E1C
:1034600080831092520208950F931F93CF93DF939E
:103470000E94881A0E94901AC8EDD0E088818F7748
:10348000888388818068888388818F7D888319BC40
:103490001092530210924F02109251021092500259
:1034A00000EE10E0F80180818B7F8083888181604D
:1034B000888342E060E080E00E949419E1EEF0E051
:1034C00080818E7F8083E2EEF0E080818160808366
:1034D000808188608083F80180818E7F80838881ED
:1034E00080618883DF91CF911F910F910895E8ED5E
:1034F000F0E080818F7E8083E7EDF0E08081816065
:10350000808384E082BF81E0809352020C94341A5D
:10351000E8EDF0E080818E7F80831092E2000895D4
:103520001092DA001092E10008951F920F920FB6E8
:103530000F9211242F933F934F935F936F937F9339
:103540008F939F93AF93BF93EF93FF938091E1008D
:1035500082FF0BC08091E20082FF07C08091E100F2
:103560008B7F8093E1000E94051D8091DA0080FF2F
:103570001FC08091D80080FF1BC08091DA008E7F31
:103580008093DA008091D90080FF0DC080E189BD71
:1035900082E189BD09B400FEFDCF81E08093530232
:1035A0000E94FA1605C019BC109253020E94081717
:1035B0008091E10080FF19C08091E20080FF15C07A
:1035C0008091E2008E7F8093E2008091E200806132
:1035D0008093E2008091D80080628093D80019BC6B
:1035E00085E0809353020E940C178091E10084FFD4
:1035F00030C08091E20084FF2CC080E189BD82E16F
:1036000089BD09B400FEFDCF8091D8008F7D8093E5
:10361000D8008091E1008F7E8093E1008091E200EC
:103620008F7E8093E2008091E20081608093E200CF
:1036300080914F02882311F084E007C08091E3005D
:1036400087FD02C081E001C083E0809353020E94A5
:103650000D178091E10083FF29C08091E20083FF74
:1036600025C08091E100877F8093E10082E0809314
:10367000530210924F028091E1008E7F8093E1000F
:103680008091E2008E7F8093E2008091E200806171
:103690008093E20042E060E080E00E949419809113
:1036A000F00088608093F0000E940B17FF91EF916B
:1036B000BF91AF919F918F917F916F915F914F914A
:1036C0003F912F910F900FBE0F901F9018951F9252
:1036D0000F920FB60F9211242F933F934F935F9346
:1036E0006F937F938F939F93AF93BF93CF93DF930A
:1036F000EF93FF93C091E900CF708091EC00D82F39
:10370000D17080FDD0E81092E9008091F000877FB1
:103710008093F00078940E94AB1B1092E900809196
:10372000F00088608093F000CD2BCF70C093E9004B
:10373000FF91EF91DF91CF91BF91AF919F918F91C9
:103740007F916F915F914F913F912F910F900FBE9D
:103750000F901F9018951F93CF93DF93CDB7DEB7CF
:10376000AA970FB6F894DEBF0FBECDBFE4E5F2E036
:1037700088E08E0F9091F10091938E13FBCF0E9401
:1037800014178091E80083FF28C180915402909122
:103790005502492F50E04A30510508F01EC1FA0188
:1037A000EC58FF4F0C94211D803821F0823809F02D
:1037B00014C108C08091500290915102992389F060
:1037C00082600FC0809158028F70873008F005C169
:1037D0008093E9008091EB0085FB882780F91092A7
:1037E000E9009091E800977F9093E8008093F100C2
:1037F0001092F100D0C0282F2D7F09F0EEC0882351
:1038000019F0823061F0E9C080915602813009F0F0
:10381000E4C0933009F080E0809351022EC0809183
:10382000560281112AC0809158028F702FEF280F05
:10383000263008F0D2C08093E9002091EB0020FFF1
:103840001CC0933021F48091EB00806214C09091F1
:10385000EB0090619093EB0021E030E0A90102C001
:10386000440F551F8A95E2F74093EA001092EA0050
:103870008091EB0088608093EB001092E9008091CA
:10388000E800877F8093E8000E94C919A6C08111D3
:10389000A4C0109156021F778091E3008078812B9D
:1038A0008093E3008091E800877F8093E8000E9486
:1038B000C9198091E80080FFFCCF8091E300806807
:1038C0008093E300111102C082E001C083E0809385
:1038D000530283C08058823008F07FC08091560226
:1038E000909157028C3D53E0950779F583E08A83E8
:1038F0008AE289834FB7F894DE01139620E03EE018
:1039000051E2E32FF0E050935700E49120FF03C011
:10391000E295EF703F5FEF708E2F90E0EA3010F08D
:10392000C79601C0C0968D939D932F5F243149F7B0
:103930004FBF8091E800877F8093E8006AE270E0E3
:10394000CE0101960E94D01815C060915802709166
:103950005902AE014F5F5F4F0E941018BC01892BC6
:10396000E1F19091E800977F9093E80089819A8136
:103970000E9433198091E8008B778093E8002DC076
:10398000803859F58091E800877F8093E800809126
:103990004F028093F1008091E8008E7773CF811100
:1039A0001CC0909156029230C0F48091E800877F4D
:1039B0008093E80090934F020E94C91980914F02B2
:1039C000811106C08091E30087FD02C081E001C043
:1039D00084E0809353020E940F178091E80083FFD8
:1039E0000AC08091E800877F8093E8008091EB0017
:1039F00080628093EB00AA960FB6F894DEBF0FBEEC
:103A0000CDBFDF91CF911F9108950895CF938091FD
:103A100053028823A1F0C091E900CF709091EC008F
:103A2000892F817090FD80E8C82B1092E900809169
:103A3000E80083FD0E94AB1BCF70C093E900CF91DB
:103A40000895EE0FFF1F0590F491E02D0994F99968
:103A5000FECF92BD81BDF89A992780B50895A8E15F
:103A6000B0E042E050E00C945B1D262FF999FECFA8
:103A700092BD81BDF89A019700B4021639F01FBAC1
:103A800020BD0FB6F894FA9AF99A0FBE08950396DE
:103A9000272F0E94361D0E94351D252F0E94361D9E
:103AA000242F0C94361D0196272F0E94361D0C944E
:103AB000351DDC01CB01FC01F999FECF06C0F2BD3A
:103AC000E1BDF89A319600B40D9241505040B8F7DC
:063AD0000895F894FFCFF9
:103AD6008D01048E0104920105012102C116C7164B
:103AE600C416C516C61601F4F5F6F73133329466D8
:103AF60097C600000000E200E900EA00B500B60043
:103B0600B700CD008301CC008A0192019401210205
:103B1600230224022502260227022A02B300B40049
:103B26006F007000818283E200E900EA00B500B60A
:103B360000B700CD008301CC008A019201940121D7
:103B460002230224022502260227022A02B300B417
:083B5600006F00700081828302
:00000001FF
